{
  "contractName": "SplitPayment",
  "abi": [
    {
      "inputs": [
        {
          "internalType": "address",
          "name": "_owner",
          "type": "address"
        }
      ],
      "payable": false,
      "stateMutability": "nonpayable",
      "type": "constructor"
    },
    {
      "constant": false,
      "inputs": [
        {
          "internalType": "address payable[]",
          "name": "to",
          "type": "address[]"
        },
        {
          "internalType": "uint256[]",
          "name": "amount",
          "type": "uint256[]"
        }
      ],
      "name": "send",
      "outputs": [],
      "payable": true,
      "stateMutability": "payable",
      "type": "function"
    }
  ],
  "bytecode": "0x608060405234801561001057600080fd5b506040516103ff3803806103ff8339818101604052602081101561003357600080fd5b8101908080519060200190929190505050806000806101000a81548173ffffffffffffffffffffffffffffffffffffffff021916908373ffffffffffffffffffffffffffffffffffffffff1602179055505061036b806100946000396000f3fe60806040526004361061001e5760003560e01c8063a645ff5f14610023575b600080fd5b61016d6004803603604081101561003957600080fd5b810190808035906020019064010000000081111561005657600080fd5b82018360208201111561006857600080fd5b8035906020019184602083028401116401000000008311171561008a57600080fd5b919080806020026020016040519081016040528093929190818152602001838360200280828437600081840152601f19601f820116905080830192505050505050509192919290803590602001906401000000008111156100ea57600080fd5b8201836020820111156100fc57600080fd5b8035906020019184602083028401116401000000008311171561011e57600080fd5b919080806020026020016040519081016040528093929190818152602001838360200280828437600081840152601f19601f82011690508083019250505050505050919291929050505061016f565b005b6000809054906101000a900473ffffffffffffffffffffffffffffffffffffffff1673ffffffffffffffffffffffffffffffffffffffff163373ffffffffffffffffffffffffffffffffffffffff1614610231576040517f08c379a00000000000000000000000000000000000000000000000000000000081526004018080602001828103825260208152602001807f57696c6c206e6f742073656e64206966206974206973206e6f74206f776e657281525060200191505060405180910390fd5b80518251146102a8576040517f08c379a00000000000000000000000000000000000000000000000000000000081526004018080602001828103825260208152602001807f746f206d7573742062652073616d65206c656e67746820617320616d6f756e7481525060200191505060405180910390fd5b60008090505b8251811015610331578281815181106102c357fe5b602002602001015173ffffffffffffffffffffffffffffffffffffffff166108fc8383815181106102f057fe5b60200260200101519081150290604051600060405180830381858888f19350505050158015610323573d6000803e3d6000fd5b5080806001019150506102ae565b50505056fea265627a7a72315820262fed060e6277a8c4739313abb4fe06b7e2fbe21d28805742734a7db35bcfb664736f6c63430005100032",
  "source": "pragma solidity ^0.5.0;\r\n\r\ncontract SplitPayment {\r\n\r\n  address owner;\r\n  \r\n  constructor(address _owner) public  {\r\n\r\n      owner = _owner; \r\n  }\r\n  \r\n  function send(address payable[] memory to, uint[] memory amount ) payable public ownerOnly {\r\n\r\n    require(to.length == amount.length, 'to must be same length as amount');\r\n\r\n    for(uint i = 0; i < to.length; i++) {\r\n\r\n      to[i].transfer(amount[i]);\r\n    }\r\n  }\r\n  \r\n  modifier ownerOnly() {\r\n\r\n    require(msg.sender == owner,'Will not send if it is not owner');\r\n    _;\r\n  }\r\n}",
  "sourcePath": "C:/Users/jeffrey/SplitPayment/contracts/SplitPayment.sol",
  "compiler": {
    "name": "solc",
    "version": "0.5.16+commit.9c3226ce.Emscripten.clang"
  },
  "schemaVersion": "3.3.3",
  "updatedAt": "2021-01-20T01:37:56.972Z",
  "networkType": "ethereum",
  "devdoc": {
    "methods": {}
  },
  "userdoc": {
    "methods": {}
  }
}